:100000000C942A000C943F000C943F000C943F0089
:100010000C943F000C943F000C943F000C943F0064
:100020000C943F000C943F000C943F000C943F0054
:100030000C943F000C943F000C943F000C943F0044
:100040000C943F000C943F000C943F000C943F0034
:100050000C943F0011241FBECFE5D4E0DEBFCDBF1E
:1000600010E0A0E6B0E0E2E5F4E002C005900D92F9
:10007000A237B107D9F70E94A0010C9427020C9473
:10008000000087E886B90895806487B9369A369B60
:10009000FECF349A24B135B1822F932F0895982F33
:1000A000907F92BB90989198929AE9EFF0E0319707
:1000B000F1F700C00000929890E082959295907FB1
:1000C0009827807F982782BB90989198929A89EF81
:1000D00090E00197F1F700C000009298089581E048
:1000E0000E944F0082E00E944F0086E00E944F0075
:1000F0008CE00E944F0088E20E944F000895982FE4
:10010000907F92BB909A9198929AE9EFF0E03197A4
:10011000F1F700C00000929890E082959295907F50
:100120009827807F982782BB909A9198929A89EF1E
:1001300090E00197F1F700C0000092980895CF92E7
:10014000DF92EF92FF920F931F93CF93DF93EC0117
:1001500084E00E944F00209791F00AE010E0CE0169
:10016000B8010E940002E62EF72E805D0E947F00FB
:10017000CE2CE6016E01DF2CE601209781F78FED92
:1001800093E9A4E081509040A040E1F700C0000056
:1001900086E00E944F00DF91CF911F910F91FF9059
:1001A000EF90DF90CF900895CF93DF93EC0188819B
:1001B000882331F021960E947F0089918823D9F706
:1001C000DF91CF91089585E088BBFECF94E085E074
:1001D00098BB2FE734E84EE1215030404040E1F732
:1001E00000C0000088BBF4CF91E085E098BB2FE70A
:1001F00034E84EE1215030404040E1F700C00000BB
:1002000088BBF4CF18BAFECF282F392FC901235845
:10021000304041E02933310508F040E021E0653607
:1002200071050CF420E0422350E021E030E0633C13
:10023000710514F020E030E0242335232115310529
:1002400061F00E94E3008FE392E4AFE081509040C0
:10025000A040E1F700C000000895FC01E556F04021
:1002600041E0EE35F10508F040E021E06F36710520
:100270000CF420E0422350E021E030E0663C7105C0
:1002800014F020E030E0242335232115310561F0FE
:100290000E94E6008FE392E4AFE081509040A040DE
:1002A000E1F700C000000895FC01ED5DF04041E081
:1002B000E332F10508F040E021E0613A71050CF409
:1002C00020E0422350E021E030E0673D710514F06A
:1002D00020E030E0242335232115310561F00E9410
:1002E000F4008FE392E4AFE081509040A040E1F74A
:1002F00000C0000008958F56904021E08B33910597
:1003000008F020E081E0603771050CF480E02823DC
:1003100030E081E090E0603A710514F080E090E018
:1003200082239323009759F00E9402018FE794E8FB
:10033000AEE181509040A040E1F700C00000089578
:10034000BF92CF92DF92EF92FF920F931F93CF93C2
:10035000DF938FEF81BB87BB0E946F0080E80E9414
:100360004F000E9441000F2EF5E0EF2EF02D0F2ED2
:10037000FCE0FF2EF02DC0E6D0E00F2EFAE0BF2EFD
:10038000F02D0F2EF9E6CF2EF0E0DF2EF02DEABA99
:10039000FBBA81E00E944400082F80E80E944F00D1
:1003A000CE010E94D4008CE80E944F00802F90E084
:1003B0000E949F0083ED90E30197F1F700C00000D9
:1003C000BABAFBBA82E00E944400182F80EC0E9467
:1003D0004F00C6010E94D4008AEC0E944F00812F7A
:1003E00090E00E949F0083ED90E30197F1F700C039
:1003F0000000802F90E0612F70E00E940401C7CFC1
:1004000097FB092E07260AD077FD04D00CD006D022
:1004100000201AF4709561957F4F0895F6F7909536
:1004200081959F4F0895AA1BBB1B51E107C0AA1FCE
:10043000BB1FA617B70710F0A61BB70B881F991F85
:100440005A95A9F780959095BC01CD010895F8942F
:02045000FFCFDC
:10045200782D617869733A2000792D617869733A51
:02046200200078
:00000001FF
