:100000000C942A000C943F000C943F000C943F0089
:100010000C943F000C943F000C943F000C943F0064
:100020000C943F000C943F000C943F000C943F0054
:100030000C943F000C943F000C943F000C943F0044
:100040000C943F000C943F000C943F000C943F0034
:100050000C943F0011241FBECFE5D4E0DEBFCDBF1E
:1000600010E0A0E6B0E0E0E5F3E002C005900D92FC
:10007000AA38B107D9F70E942E010C94A6010C945E
:10008000000087E886B90895806487B9369A349B62
:10009000FECF349A24B135B1822F932F0895982F33
:1000A000907F92BB90989198929AE9EFF0E0319707
:1000B000F1F700C000009298E9EFF0E03197F1F716
:1000C00000C0000090E082959295907F9827807FF5
:1000D000982782BB90989198929A89EF90E0019727
:1000E000F1F700C000009298E9EFF0E03197F1F7E6
:1000F00000C00000089582E00E944F0088E20E9444
:100100004F008CE00E944F0081E00E944F0084E885
:100110000E944F000895982F907F92BB909A9198DB
:10012000929AE9EFF0E03197F1F700C00000929861
:10013000E9EFF0E03197F1F700C0000090E0829520
:100140009295907F9827807F982782BB909A91986C
:10015000929A89EF90E00197F1F700C00000929821
:100160000895CF92DF92EF92FF920F931F93CF9358
:10017000DF93EC0184E00E944F00209791F00AE0A9
:1001800010E0CE01B8010E949201E62EF72E805DAC
:100190000E948B00CE2CE6016E01DF2CE601209739
:1001A00081F786E00E944F00DF91CF911F910F9160
:1001B000FF90EF90DF90CF900895CF93DF93EC0105
:1001C0008881882331F021960E948B0089918823B1
:1001D000D9F7DF91CF910895282F392FC9012159DF
:1001E00031402A3A310558F421E0653572073CF078
:1001F00021E0653F72071CF485E088BB08959C01EF
:100200002B5332402E31310550F46B3F71053CF0D9
:1002100021E0653572071CF489E088BB0895895593
:1002200092408035910548F46B3F710534F021E030
:100230006134720714F418BA08958C33910558F498
:1002400081E0613478073CF021E0693672071CF4E4
:100250008AE088BB089586E088BB08958F929F92BC
:10026000AF92BF92CF92DF92EF92FF920F931F93C4
:10027000CF93DF938FEF87BB81BB0E947B000E94EF
:1002800041000F2EF5E0BF2EF02D0F2EF3E0AF2E24
:10029000F02D0F2EF0E6EF2EF0E0FF2EF02D0F2EBA
:1002A000FAE09F2EF02D0F2EF6E08F2EF02D0F2E60
:1002B000F5E7CF2EF0E0DF2EF02DBABAABBA81E031
:1002C0000E944400EC0180E80E944F00C7010E9498
:1002D000DD008FE80E944F00CE010E94B10083ED47
:1002E00090E30197F1F700C000009ABA8BBA82E060
:1002F0000E9444008C0180EC0E944F00C6010E94C5
:10030000DD008FEC0E944F00C8010E94B10083ED18
:1003100090E30197F1F700C00000CE01B8010E9400
:10032000EC00CBCFAA1BBB1B51E107C0AA1FBB1F10
:10033000A617B70710F0A61BB70B881F991F5A9571
:10034000A9F780959095BC01CD010895F894FFCF51
:10035000782D617869732020202020202020202003
:100360002020202000792D61786973202020202012
:0A0370002020202020202020200063
:00000001FF
