:100000000C942A000C9434000C9434000C943400AA
:100010000C9434000C9434000C9434000C94340090
:100020000C9434000C9434000C9434000C94340080
:100030000C9434000C9434000C9434000C94340070
:100040000C9434000C9434000C9434000C94340060
:100050000C94340011241FBECFE5D4E0DEBFCDBF29
:100060000E9436000C9426010C9400008FEF87BB91
:1000700084BB1ABA8BBB37E02BE09DE08EE035BB2A
:10008000E7EAF1E63197F1F700C00000C89B36C0FF
:10009000C99B37C0CA9B38C0CB9B39C025BBE7EA98
:1000A000F1E63197F1F700C00000C89B33C0C99B4F
:1000B00034C0CA9B35C0CB9B36C095BBE7EAF1E69E
:1000C0003197F1F700C00000C89B30C0C99B31C018
:1000D000CA9B32C0CB9B33C085BBE7EAF1E63197C0
:1000E000F1F700C00000C89B2DC0C99B2EC0CA9B61
:1000F0002FC0CB99C4CF8FE090E02CC080E090E07F
:1001000029C081E090E026C082E090E023C083E037
:1001100090E020C084E090E01DC085E090E01AC02F
:1001200086E090E017C087E090E014C088E090E09F
:1001300011C089E090E00EC08AE090E00BC08BE037
:1001400090E008C08CE090E005C08DE090E002C037
:100150008EE090E057E04BE03DE02EE055BBE7EA53
:10016000F1E63197F1F700C00000C89B09C0C99BB8
:100170000AC0CA9B0BC0CB9930C023E030E05BC003
:1001800020E030E058C021E030E055C022E030E00F
:1001900052C024E030E04FC025E030E04CC026E003
:1001A00030E049C027E030E046C028E030E043C0FE
:1001B00029E030E040C02AE030E03DC02BE030E0F4
:1001C0003AC02CE030E037C02DE030E034C02EE003
:1001D00030E031C02FE030E02EC045BBE7EAF1E669
:1001E0003197F1F700C00000C89BD3CFC99BD4CF93
:1001F000CA9BD5CFCB9BD6CF35BBE7EAF1E631978B
:10020000F1F700C00000C89BD0CFC99BD1CFCA9BDB
:10021000D2CFCB9BD3CF25BBE7EAF1E63197F1F7FD
:1002200000C00000C89BCDCFC99BCECFCA9BCFCF0B
:10023000CB9994CFCFCF42E051E0009729F4223000
:10024000310511F458BBF9CF48BBF7CFF894FFCF75
:00000001FF
