:100000000C942A000C943F000C943F000C943F0089
:100010000C943F000C943F000C943F000C943F0064
:100020000C943F000C943F000C943F000C943F0054
:100030000C943F000C943F000C943F000C943F0044
:100040000C943F000C943F000C943F000C943F0034
:100050000C943F0011241FBECFE5D4E0DEBFCDBF1E
:1000600010E0A0E6B0E0ECEAF2E002C005900D92EC
:10007000AC38B107D9F70E94A0000C9454010C943D
:100080000000982F907F92BB90989198929AE9EFF8
:10009000F0E03197F1F700C00000929890E082956F
:1000A0009295907F9827807F982782BB909891980F
:1000B000929A89EF90E00197F1F700C000009298C2
:1000C000089581E00E94410082E00E94410086E0A4
:1000D0000E9441008CE00E94410088E20E944100A1
:1000E0000895982F907F92BB909A9198929AE9EFF9
:1000F000F0E03197F1F700C00000929890E082950F
:100100009295907F9827807F982782BB909A9198AC
:10011000929A89EF90E00197F1F700C00000929861
:100120000895CF93DF93EC018881882331F02196E5
:100130000E94710089918823D9F7DF91CF910895AA
:100140002F923F924F925F926F927F928F929F92E7
:10015000AF92BF92CF92DF92EF92FF920F931F93D5
:10016000CF93DF938FEF87BB84BB1ABA8BBB81BB66
:100170000E94610080EC0E94410007E0BB24B39420
:10018000C0E6D0E0AA246894A1F80F2EF6E68F2EE0
:10019000F0E09F2EF02D0F2EFBE66F2EF0E07F2E6D
:1001A000F02DEE246894E3F80F2EF6E74F2EF0E0E2
:1001B0005F2EF02D1BE00F2EF9E0DF2EF02D0F2E1D
:1001C000FAE72F2EF0E03F2EF02D0F2EFAE0CF2E83
:1001D000F02D0F2EFDE0FF2EF02D05BB87EA91E6F6
:1001E0000197F1F700C00000C89907C080E80E949D
:1001F0004100B8BACE010E949100C99907C080E8B9
:100200000E944100A8BAC4010E949100CA9908C086
:1002100080E80E94410093E098BBC3010E949100D6
:10022000CB9907C080E80E944100E8BAC2010E9451
:10023000910015BB87EA91E60197F1F700C0000035
:10024000C89907C080E80E944100D8BAC1010E9445
:100250009100C99908C080E80E944100C8BA81E8AD
:1002600090E00E949100CA9908C080E80E94410075
:1002700018BB86E890E00E949100CB9904C08B2DBA
:100280000E94410008BBF5BA87EA91E60197F1F7B1
:1002900000C00000C89BE8BAC99BD8BACA9BC8BABC
:0C02A000CB999BCF18BB99CFF894FFCFEF
:1002AC00677265656E00626C7565006C6967687471
:1002BC0020626C756500726564006F72616E6765B3
:0C02CC000070696E6B0077686974650053
:00000001FF
