:100000000C942A000C9434000C9434000C943400AA
:100010000C9434000C9434000C9434000C94340090
:100020000C9434000C9434000C9434000C94340080
:100030000C9434000C9434000C9434000C94340070
:100040000C9434000C9434000C9434000C94340060
:100050000C94340011241FBECFE5D4E0DEBFCDBF29
:100060000E9469000C94A7000C94000018BA8FE756
:1000700094E8AEE181509040A040E1F700C000005C
:10008000089585E088BB8FE794E8AEE18150904009
:10009000A040E1F700C00000089586E088BB8FE72C
:1000A00094E8AEE181509040A040E1F700C000002C
:1000B0000E944100089589E088BB8FE794E8AEE193
:1000C00081509040A040E1F700C000000E94410034
:1000D0000895EF92FF920F931F93CF93DF938FEFCB
:1000E00087BB1ABAEE24FF2489B38370833019F4D6
:1000F0000E945B0014C0CA9B03C00E944D000FC049
:1001000089B38770873019F40E94360008C089B31C
:100110000E9441002196C330D10531F714C00E94DE
:1001200041000F5F1F4F8FE996E8A1E0815090409A
:10013000A040E1F700C0000003301105A9F60E94BD
:100140005B008701D1CF0E944D00E701CDCFF8942D
:02015000FFCFDF
:00000001FF
