:100000000C942A000C9434000C9434000C943400AA
:100010000C9434000C9434000C9434000C94340090
:100020000C9434000C9434000C9434000C94340080
:100030000C9434000C9434000C9434000C94340070
:100040000C9434000C9434000C9434000C94340060
:100050000C94340011241FBECFE5D4E0DEBFCDBF29
:100060000E9490000C94BF000C94000080E489B9B9
:1000700083E080BD86E880BD88E18AB908955F9BF2
:10008000FECF8CB10895982F907F92BB9098919855
:10009000929AE9EFF0E03197F1F700C000009298F2
:1000A00090E082959295907F9827807F982782BBD9
:1000B00090989198929A89EF90E00197F1F700C09B
:1000C00000009298089582E00E94430086E00E941A
:1000D00043008CE00E94430088E20E9443000895A0
:1000E000982F907F92BB909A9198929AE9EFF0E0C6
:1000F0003197F1F700C00000929890E082959295B8
:10010000907F9827807F982782BB909A9198929AA7
:1001100089EF90E00197F1F700C0000092980895F0
:100120001F938FEF87BB81BB0E9463000E94360044
:1001300080E80E9443000E943F00182F83EC99E062
:100140000197F1F700C00000812F0E947000112379
:1001500091F781E00E94430084E00E944300EBCFCE
:10016000CF93DF93EC018881882331F021960E94A0
:10017000700089918823D9F7DF91CF910895F89481
:02018000FFCFAF
:00000001FF
