:100000000C942A000C943F000C943F000C943F0089
:100010000C943F000C943F000C943F000C943F0064
:100020000C943F000C943F000C943F000C943F0054
:100030000C943F000C943F000C943F000C943F0044
:100040000C943F000C943F000C943F000C943F0034
:100050000C943F0011241FBECFE5D4E0DEBFCDBF1E
:1000600010E0A0E6B0E0ECE6F6E002C005900D92EC
:10007000AA36B107D9F70E9412010C9434030C94EC
:100080000000982F907F92BB90989198929AE9EFF8
:10009000F0E03197F1F700C00000929890E082956F
:1000A0009295907F9827807F982782BB909891980F
:1000B000929A89EF90E00197F1F700C000009298C2
:1000C000089581E00E94410082E00E94410086E0A4
:1000D0000E9441008CE00E94410088E20E944100A1
:1000E0000895CF93DF9380E80E944100C6EBD0E0F3
:1000F00080E690E0FE01099586E00E94410080ECD8
:100100000E94410083E690E0FE01099586E00E948E
:10011000410087E80E94410086E690E0FE010995D3
:1001200086E00E944100DF91CF910895982F907F43
:1001300092BB909A9198929AE9EFF0E03197F1F79B
:1001400000C00000929890E082959295907F982749
:10015000807F982782BB909A9198929A89EF90E03D
:100160000197F1F700C0000092980895CF93DF93B4
:10017000EC018881882331F021960E9496008991B4
:100180008823D9F7DF91CF9108951F93CF93DF9301
:10019000EC0188EC0E94410084E00E949600CE01B0
:1001A0006AE070E00E940D03182F862F805D0E9488
:1001B000960086E00E94410087EA91E60197F1F7F8
:1001C00000C00000812F805D0E94960086E00E94A2
:1001D000410087EA91E60197F1F700C00000DF9146
:1001E000CF911F9108951F936AE070E00E940D0364
:1001F000182F862F805D0E94960087EA91E601976E
:10020000F1F700C0000086E00E944100812F805D70
:100210000E94960087EA91E60197F1F700C000007E
:100220001F9108952F923F924F925F926F927F920B
:100230008F929F92AF92BF92CF92DF92EF92FF92F6
:100240000F931F93CF93DF938FEF81BB87BB84BB4B
:100250001ABA8BBB0E9461000E94710007E00F2E4A
:10026000FBE0FF2EF02D0F2EFDE0EF2EF02DAA2447
:10027000BB2422243324689422F80F2EF3E06F2E3F
:100280007724F02D44245524689441F88824992437
:1002900083941EE082E80E94410005BB87EA91E654
:1002A0000197F1F700C00000C8990EC080E30E94DA
:1002B00096008FE794E8AEE181509040A040E1F7CE
:1002C00000C00000E501A8C0C9990EC081E30E94EA
:1002D00096008FE794E8AEE181509040A040E1F7AE
:1002E00000C00000E40198C0CA990EC082E30E94D9
:1002F00096008FE794E8AEE181509040A040E1F78E
:1003000000C00000E20188C0CB990EC083E30E94C8
:1003100096008FE794E8AEE181509040A040E1F76D
:1003200000C00000E30178C0F5BAA7EAB1E6119772
:10033000F1F700C00000C8990EC084E30E94960047
:100340008FE794E8AEE181509040A040E1F700C013
:100350000000E10161C0C9990FC085E30E949600C9
:100360008FE794E8AEE181509040A040E1F700C0F3
:100370000000C5E0D0E050C0CA990FC086E30E94DB
:1003800096008FE794E8AEE181509040A040E1F7FD
:1003900000C00000C6E0D0E03FC0CB990FC087E3AB
:1003A0000E9496008FE794E8AEE181509040A04013
:1003B000E1F700C00000C7E0D0E02EC0E5BAA7EA30
:1003C000B1E61197F1F700C00000C8990FC088E3AB
:1003D0000E9496008FE794E8AEE181509040A040E3
:1003E000E1F700C00000C8E0D0E016C0C9990FC016
:1003F00089E30E9496008FE794E8AEE18150904037
:10040000A040E1F700C00000C9E0D0E005C0CA9BF1
:1004100003C0CB9BD0C03ECF82EC0E94410005BB05
:10042000A7EAB1E61197F1F700C00000C8990EC025
:1004300080E30E9496008FE794E8AEE181509040FF
:10044000A040E1F700C000006501B5C0C9990EC029
:1004500081E30E9496008FE794E8AEE181509040DE
:10046000A040E1F700C000006401A5C0CA990EC019
:1004700082E30E9496008FE794E8AEE181509040BD
:10048000A040E1F700C00000620195C0CB990EC00A
:1004900083E30E9496008FE794E8AEE1815090409C
:1004A000A040E1F700C00000630185C0F5BAA7EAEB
:1004B000B1E61197F1F700C00000C8990EC084E3BF
:1004C0000E9496008FE794E8AEE181509040A040F2
:1004D000E1F700C0000061016EC0C99912C085E358
:1004E0000E9496008FE794E8AEE181509040A040D2
:1004F000E1F700C000000F2EF5E0CF2EDD24F02D37
:100500005AC0CA9912C086E30E9496008FE794E809
:10051000AEE181509040A040E1F700C000000F2EF6
:10052000F6E0CF2EDD24F02D46C0CB9912C087E334
:100530000E9496008FE794E8AEE181509040A04081
:10054000E1F700C000000F2EF7E0CF2EDD24F02DE4
:1005500032C0E5BAA7EAB1E61197F1F700C0000092
:10056000C89911C088E30E9496008FE794E8AEE135
:1005700081509040A040E1F700C00000CC24DD2471
:100580006894C3F818C0C99912C089E30E94960004
:100590008FE794E8AEE181509040A040E1F700C0C1
:1005A00000000F2EF9E0CF2EDD24F02D04C0CA9BF1
:1005B00002C0CB9931CF15BBA7EAB1E61197F1F78D
:1005C00000C0000089E80E944100C89908C0BFE04F
:1005D000B8BBCE018C0D9D1D0E94F3005BCEC99966
:1005E00006C0CE018C199D090E94F30053CECA9912
:1005F0000AC0CC9DC001CD9D900DDC9D900D1124B5
:100600000E94F30047CECB99D6CFCE01B6010E940F
:100610000D03CB010E94F3003DCE97FB092E072668
:100620000AD077FD04D00CD006D000201AF47095C3
:1006300061957F4F0895F6F7909581959F4F0895A6
:10064000AA1BBB1B51E107C0AA1FBB1FA617B707F8
:1006500010F0A61BB70B881F991F5A95A9F7809514
:0C0660009095BC01CD010895F894FFCFE7
:0A066C00613D00623D00713D000099
:00000001FF
