:100000000C942A000C9434000C9434000C943400AA
:100010000C9434000C9434000C9434000C94340090
:100020000C9434000C9434000C9434000C94340080
:100030000C9434000C9434000C9434000C94340070
:100040000C9434000C9434000C9434000C94340060
:100050000C94340011241FBECFE5D4E0DEBFCDBF29
:100060000E9486000C9431010C940000982F907F20
:1000700092BB90989198929AE3ECF9E03197F1F75E
:1000800000C00000929890E082959295907F98270A
:10009000807F982782BB90989198929A83EC99E000
:1000A0000197F1F700C000009298089581E00E9446
:1000B000360082E00E94360088E20E94360086E028
:1000C0000E94360080EC0E9436000895982F907FA1
:1000D00092BB909A9198929AE3ECF9E03197F1F7FC
:1000E00000C00000929890E082959295907F9827AA
:1000F000807F982782BB909A9198929A83EC99E09E
:100100000197F1F700C00000929808959F92AF9276
:10011000BF92CF92DF92EF92FF920F931F931ABA82
:100120008FEF87BB81BB0E94560080EC0E94360097
:1001300007E0CC246894C2F8BB246894B1F8DD24AD
:10014000D3940F2EF5E09F2EF02D0F2EF6E0AF2E5C
:10015000F02D18E00F2EF9E0EF2EF02D0F2EF3E02A
:10016000FF2EF02D89B38770873059F408BB83ECDC
:1001700099E00197F1F700C0000087E30E94660054
:10018000F1CF89B38370833059F4F8BA83E30E94C6
:10019000660083EC99E00197F1F700C00000E2CF20
:1001A00089B38970893059F4E8BA89E30E946600FE
:1001B00083EC99E00197F1F700C00000D3CFCB9B0F
:1001C0000BC018BB88E30E94660083EC99E001979E
:1001D000F1F700C00000C6CF89B38670863059F4AD
:1001E000A8BA86E30E94660083EC99E00197F1F7D4
:1001F00000C00000B7CF89B38570853059F498BA34
:1002000085E30E94660083EC99E00197F1F700C056
:100210000000A8CFC89B0BC0D8BA81E30E9466003B
:1002200083EC99E00197F1F700C000009BCFC99BD8
:100230000BC0B8BA82E30E94660083EC99E0019794
:10024000F1F700C000008ECFCA9B8CCFC8BA84E300
:100250000E94660083EC99E00197F1F700C000006E
:0602600081CFF894FFCFEE
:00000001FF
